S0110000554152545F774952512E7372656315
S11300000C9434000C9451000C9451000C94510045
S11300100C9451000C9451000C9451000C94510018
S11300200C9451000C9451000C9451000C94510008
S11300300C9451000C9451000C9451000C945100F8
S11300400C9451000C9451000C945E000C947D01AE
S11300500C9451000C9451000C9451000C945100D8
S11300600C9451000C94510011241FBECFEFD8E022
S1130070DEBFCDBF11E0A0E0B1E0E6E9F9E002C0E7
S113008005900D92A831B107D9F721E0A8E1B1E0BC
S113009001C01D92A932B207E1F70E94F0000C944E
S11300A0C9040C9400000E943C0108950E942D0193
S11300B01092C50087E68093C40008951F920F92A2
S11300C00FB60F9211242F933F934F935F936F9327
S11300D07F938F939F93AF93BF93EF93FF93CF93AC
S11300E0DF93CDB7DEB76597DEBFCDBFE1ECF0E0BF
S11300F08081808389818093C6008A818823D9F096
S11301008B81811118C089818D838A81882369F04C
S11301108B8181110AC08D81811107C08D811F924D
S11301208F930E94EB010F900F90E1ECF0E080813F
S1130130806880833CC08B81882391F08E819F816D
S1130140892B71F41D82898190E09F838E838E8137
S11301509F811A82E1ECF0E080818068808327C06F
S1130160998180E098130AC08D8381E08A831B8281
S1130170E1ECF0E080818068808319C0898181117D
S11301800BC01D8281E08B838E819F81E1ECF0E0C6
S11301908081806880830BC01C821A821B8287E561
S11301A08093C600E1ECF0E08081806880836596EE
S11301B00FB6F894DEBF0FBECDBFDF91CF91FF9194
S11301C0EF91BF91AF919F918F917F916F915F91CB
S11301D04F913F912F910F900FBE0F901F90189544
S11301E00E9453000E9456002AC0FC01E050FF4FB9
S11301F020812093C6002FEF39E648E1215030409A
S11302004040E1F700C00000019602C080E090E0A9
S1130210E0E0F1E001900020E9F73197E050F1408F
S11302208E179F0710F3E6ECF0E08AE080838FE3FB
S11302309CE90197F1F700C000008DE080830E94E3
S1130240A6018111E3CF9FEF29E638E191502040C8
S11302503040E1F700C00000F2CF8AB18E7F8AB946
S11302608BB18E7F8BB98AB182608AB98BB18D7F55
S11302708BB90E94D10108958FEE8093640084B1FC
S113028014B885B19FEF95B987B1807887B988B1E3
S11302908F6788B98AB11AB88BB19BB940E060E81E
S11302A081E690E00E94570113BE15BE08952FB752
S11302B0F894FC01608340832FBF08958091180156
S11302C0882389F0E0911901EF5FE770E093190149
S11302D0F0E0E55EFE4F80818093C60080911801B6
S11302E081508093180180911801811105C0E1ECBF
S11302F0F0E080818F7D808308951F920F920FB666
S11303000F9211242F933F934F935F936F937F9397
S11303108F939F93AF93BF93EF93FF93E091080163
S1130320F0910901309709F00995FF91EF91BF9180
S1130330AF919F918F917F916F915F914F913F9179
S11303402F910F900FBE0F901F9018959091180148
S113035081E0983009F480E0089520911A012F5F1C
S11303602770909118019830E1F3E22FF0E0E55EF8
S1130370FE4F808320931A010FB6F8940F92809158
S113038018018F5F809318010F900FBEE1ECF0E02D
S113039080818062808308950E94AD0180E090E0B6
S11303A00895E4E6F0E080818D7F80831092C5009B
S11303B083E38093C4001092C00088E98093C10055
S11303C08EE38093C2008AE091E0909326018093AB
S11303D0250180E00895A0E0B0E0E1EFF1E00C94A5
S11303E0A204AE014B5F5F4FFA0161917191AF01BD
S11303F080912501909126010E940102E2E00C9473
S1130400BE04ABE0B0E0E7E0F2E00C9492046C01CF
S11304107B018A01FC0117821682838181FFCCC192
S1130420CE0101963C01F6019381F70193FD85917C
S113043093FF81917F01882309F4BAC1853239F48D
S113044093FD859193FF81917F01853229F4B60153
S113045090E00E94F803E7CF912C212C312CFFE18E
S1130460F315D8F08B3279F038F4803279F0833296
S1130470A1F4232D20611DC08D3261F0803369F415
S1130480232D216016C0832D8260382EE32DE46075
S11304903E2E2AC0F32DF8601DC037FC2DC020ED80
S11304A0280F2A3040F08E32B9F436FC81C1232D56
S11304B02064322E19C036FE06C08AE0989E200DB4
S11304C01124922E11C0EAE02E9E200D1124222E1A
S11304D0F32DF0623F2E08C08C3621F4832D806802
S11304E0382E02C0883641F4F70193FD859193FFBD
S11304F081917F018111B3CF982F9F7D95549330C3
S113050028F40C5F1F4F9FE399830DC0833631F0AD
S1130510833771F0833509F059C021C0F801808117
S113052089830E5F1F4F88248394912C530113C039
S11305302801F2E04F0E511CF801A080B18036FE74
S113054003C0692D70E002C06FEF7FEFC5010E9408
S1130550ED034C018201F32DFF773F2E16C02801D5
S113056022E0420E511CF801A080B18036FE03C087
S1130570692D70E002C06FEF7FEFC5010E94E203B6
S11305804C01F32DF0683F2E820133FC1BC0822DF9
S113059090E088169906B0F4B60180E290E00E94DB
S11305A0F8032A94F4CFF50137FC859137FE819145
S11305B05F01B60190E00E94F80321102A9421E023
S11305C0821A91088114910471F7E8C0843611F0FD
S11305D0893641F5F80137FE07C060817181828157
S11305E093810C5F1F4F08C060817181072E000C3E
S11305F0880B990B0E5F1F4FF32DFF763F2E97FF4D
S113060009C090958095709561957F4F8F4F9F4F4E
S1130610F0683F2E2AE030E0A3010E943404882EC3
S1130620861845C0853731F4232D2F7EB22E2AE05B
S113063030E025C0932D997FB92E8F36C1F018F480
S1130640883579F0B5C0803719F0883721F0B0C00B
S1130650E92FE061BE2EB4FE0DC0FB2DF460BF2E69
S113066009C034FE0AC0292F2660B22E06C028E035
S113067030E005C020E130E002C020E132E0F801C2
S1130680B7FE07C060817181828193810C5F1F4F27
S113069006C06081718180E090E00E5F1F4FA3016E
S11306A00E943404882E8618FB2DFF773F2E36FED9
S11306B00DC0232D2E7FA22E891458F434FE0BC0B6
S11306C032FC09C0832D8E7EA82E05C0B82CA32C25
S11306D003C0B82C01C0B92CA4FE0FC0FE01E80D64
S11306E0F11D8081803321F49A2D997EA92E09C0B1
S11306F0A2FE06C0B394B39404C08A2D867809F090
S1130700B394A3FC11C0A0FE06C0B21488F4280C54
S1130710922C9B180EC0B21460F4B60180E290E0F3
S11307200E94F803B394F7CFB21418F42B1802C044
S1130730982C212CA4FE10C0B60180E390E00E9406
S1130740F803A2FE17C0A1FC03C088E790E002C032
S113075088E590E0B6010CC08A2D867859F0A1FE98
S113076002C08BE201C080E2A7FC8DE2B60190E0FA
S11307700E94F803891438F4B60180E390E00E94E3
S1130780F8039A94F7CF8A94F301E80DF11D808160
S1130790B60190E00E94F8038110F5CF222009F4FD
S11307A042CEB60180E290E00E94F8032A94F6CF8C
S11307B0F6018681978102C08FEF9FEF2B96E2E1CD
S11307C00C94AE04FC010590615070400110D8F700
S11307D0809590958E0F9F1F0895FC016150704085
S11307E001900110D8F7809590958E0F9F1F089562
S11307F00F931F93CF93DF93FB01238121FD03C04C
S11308008FEF9FEF2CC022FF16C0468157812481B1
S113081035814217530744F4A081B1819D012F5FB4
S11308203F4F318320838C93268137812F5F3F4F45
S11308303783268314C08B01EC01FB010084F1850E
S1130840E02D0995892BE1F6D80116968D919C919E
S11308501797019617969C938E931697CE01DF9166
S1130860CF911F910F910895FA01AA27283051F1D1
S1130870203181F1E8946F936E7F6E5F7F4F8F4FCD
S11308809F4FAF4FB1E03ED0B4E03CD0670F781F2C
S1130890891F9A1FA11D680F791F8A1F911DA11D11
S11308A06A0F711D811D911DA11D20D009F468944A
S11308B03F912AE0269F11243019305D3193DEF6F2
S11308C0CF010895462F4770405D4193B3E00FD0A8
S11308D0C9F7F6CF462F4F70405D4A3318F0495D93
S11308E031FD4052419302D0A9F7EACFB4E0A69576
S11308F09795879577956795BA95C9F70097610598
S1130900710508959B01AC010A2E069457954795ED
S113091037952795BA95C9F7620F731F841F951FE2
S1130920A01D08952F923F924F925F926F927F92F3
S11309308F929F92AF92BF92CF92DF92EF92FF92EB
S11309400F931F93CF93DF93CDB7DEB7CA1BDB0B97
S11309500FB6F894DEBF0FBECDBF09942A8839883C
S113096048885F846E847D848C849B84AA84B98443
S1130970C884DF80EE80FD800C811B81AA81B9814F
S1130980CE0FD11D0FB6F894DEBF0FBECDBFED0163
S10909900895F894FFCF66
S11309967368657368616E6B5E0100000002000097
S10B09A60000CC010000000078
S9030000FC
