S01900004C434420576F726B696E6720436865636B2E7372656339
S11300000C9434000C9449000C9449000C9449005D
S11300100C9449000C9449000C9449000C94490038
S11300200C9449000C9449000C9449000C94490028
S11300300C9449000C9449000C9449000C94490018
S11300400C9449000C9449000C9449000C94490008
S11300500C9449000C9449000C9449000C944900F8
S11300600C9449000C94490011241FBECFEFD8E032
S1130070DEBFCDBF11E0A0E0B1E0E2E2F5E002C0F6
S113008005900D92A832B107D9F70E943F020C9453
S11300908F020C9400000E946D020895672B09F0F2
S11300A0A1C08A30910521F485B18E7F85B9089568
S11300B08B30910521F485B18D7F85B908958C30FD
S11300C0910521F485B18B7F85B908958D30910513
S11300D021F485B1877F85B908958E30910521F487
S11300E085B18F7E85B908958F30910521F485B14E
S11300F08F7D85B908958031910521F485B18F7B79
S113010085B908958131910521F485B18F7785B939
S113011008958431910521F488B18E7F88B90895BA
S11301208531910521F488B18D7F88B90895863190
S1130130910521F488B18B7F88B9089587319105A1
S113014021F488B1877F88B908958831910521F415
S113015088B18F7E88B908958931910521F488B1D9
S11301608F7D88B908958A31910521F488B18F7BF8
S113017088B908958E31910521F48BB18E7F8BB9A6
S113018008958F31910521F48BB18D7F8BB908953A
S11301908032910521F48BB18B7F8BB90895813224
S11301A0910521F48BB1877F8BB908958232910533
S11301B021F48BB18F7E8BB908958332910521F49C
S11301C08BB18F7D8BB908958432910521F48BB165
S11301D08F7B8BB90895859709F0A3C08BB18F7776
S11301E08BB908958A30910521F485B1816085B970
S11301F008958B30910521F485B1826085B9089505
S11302008C30910521F485B1846085B908958D30D1
S1130210910521F485B1886085B908958E309105E2
S113022021F485B1806185B908958F30910521F459
S113023085B1806285B908958031910521F485B135
S1130240806485B908958131910521F485B1806870
S113025085B908958431910521F488B1816088B904
S113026008958531910521F488B1826088B9089593
S11302708631910521F488B1846088B90895873165
S1130280910521F488B1886088B908958831910571
S113029021F488B1806188B908958931910521F4E8
S11302A088B1806288B908958A31910521F488B1B2
S11302B0806488B908958E31910521F48BB18160F1
S11302C08BB908958F31910521F48BB182608BB97C
S11302D008958032910521F48BB184608BB908951F
S11302E08132910521F48BB188608BB908958232F3
S11302F0910521F48BB180618BB908958332910506
S113030021F48BB180628BB908958432910521F474
S11303108BB180648BB90895859719F48BB180688B
S11303208BB908958BB92FE788E391E02150804081
S11303309040E1F700C000000895CF93C82F60E01B
S113034070E08BE090E00E944E008C2F0E9492019E
S113035061E070E08AE090E00E944E008FEC97E04C
S11303600197F1F700C0000060E070E08AE090E0DF
S11303700E944E008FEC97E00197F1F700C0000057
S1130380CF91089581E00E949D01089560E070E09E
S11303908BE090E00E944E0060E070E08AE090E024
S11303A00E944E008FE39CE90197F1F700C0000022
S11303B080E30E949D018FE097E20197F1F700C06E
S11303C0000080E30E949D018FEC97E00197F1F714
S11303D000C0000080E30E949D018FE19EE401972C
S11303E0F1F700C0000088E30E949D018CE00E94A8
S11303F09D0181E00E949D0186E00E949D01089577
S1130400CF93C82F61E070E08BE090E00E944E0033
S11304108C2F0E94920161E070E08AE090E00E94DB
S11304204E008FE097E20197F1F700C0000060E012
S113043070E08AE090E00E944E008FEC97E0019714
S1130440F1F700C00000CF9108950F931F93CF934D
S1130450DF938C01C0E0D0E003C00E94000221962B
S1130460F801EC0FFD1F80818111F7CFDF91CF914F
S11304701F910F9108958FEF8AB984B908950E944E
S11304804B000E943B020E94C60180E091E00E9462
S113049025022FEF89E698E1215080409040E1F752
S11304A000C000000E94C20182E191E00E94250286
S11304B02FE78BE898E0215080409040E1F700C09E
S11304C000000E94C2012FEF80E792E0215080409B
S11304D09040E1F700C00000E7CF8FEE8093640006
S11304E084B114B885B19FEF95B987B1807887B985
S11304F088B18F6788B98AB11AB88BB19BB940E0CB
S113050060E881E690E00E94880213BE15BE08955B
S11305102FB7F894FC01608340832FBF0895F894AB
S1050520FFCF07
S1130522496E697469616C697A696E6720646F6E79
S1130532650054686973206973206120746573745B
S10B05422044656275670000A6
S9030000FC
