:100000000C945A000C9477000C9477000C947700B1
:100010000C9477000C9477000C9477000C94770084
:100020000C9477000C9477000C9477000C94770074
:100030000C9477000C944F040C9477000C94770088
:100040000C94CB010C9477000C94EB040C941405E5
:100050000C9477000C9477000C9477000C94770044
:100060000C9477000C9477000C9477000C94770034
:100070000C9477000C9477000C9477000C94770024
:100080000C9477000C9477000C9477000C94770014
:100090000C9477000C9477000C9477000C94770004
:1000A0000C9477000C9477000C9477000C947700F4
:1000B0000C94770011241FBECFEFD8E0DEBFCDBF78
:1000C00011E0A0E0B1E0EAECF0E102C005900D9291
:1000D000AA37B107D9F722E0AAE7B1E001C01D9223
:1000E000AF32B207E1F70E9405010C9463080C944B
:1000F00000000E948C01089580E00E945E019093B0
:100100001E0280931D0268EE73E080E090E0089587
:10011000CF93DF93C0911D02D0911E020E946C010B
:1001200090E0089702C0D695C7958A95E2F7D093DC
:100130001C02C0931B0280911B0290911C020E9422
:10014000C90168EE73E080E090E0DF91CF910895FF
:1001500080911D0290911E029F938F938EE491E0F7
:100160009F938F930E94850580911B0290911C02A2
:100170009F938F9387E591E09F938F930E948505CE
:100180008DB79EB708960FB6F8949EBF0FBE8DBF71
:1001900060EA7FE080E090E0089580917C0190919A
:1001A0007D019C012F5F3F4F30937D0120937C01A7
:1001B0009F938F9382E691E09F938F930E94850592
:1001C0000F900F900F900F9060E47FE180E090E03F
:1001D000089580917A0190917B019C012F5F3F4FA0
:1001E00030937B0120937A019F938F938EE691E069
:1001F0009F938F930E9485050F900F900F900F9003
:1002000060E87EE380E090E008950E9479007894B1
:1002100048EE53E060E070E088E291E00E94B503B0
:1002200048EE53E060E070E08EE191E00E94B5039B
:1002300040EA5FE060E070E084E191E00E94B50395
:1002400040E45FE160E070E08AE091E00E94B50385
:1002500040E85EE360E070E080E091E00E94B5037A
:100260000E941804FDCFE4E6F0E080818E7F808359
:1002700080EC80937C0084E880937A0010927B006D
:1002800080E00895ECE7F0E09081907F908390818A
:10029000892B8083EAE7F0E0808180648083089581
:1002A00080917A00829581700895209178008091E4
:1002B000790090E0982F8827822B08950E944201B0
:1002C0000E9450018823E1F30E945501EAE7F0E023
:1002D00020812061208308958AE008950E943301DF
:1002E00008958AB180648AB98BB18F7B8BB90E94E3
:1002F000BE0108950E94E30108958AB18E7F8AB9F4
:100300008BB18E7F8BB98AB182608AB98BB18D7FB8
:100310008BB90E94610508958DE3809365008FEF8E
:100320008093640094B114B895B185B997B1907871
:1003300097B998B19F6798B99AB11AB89BB18BB920
:100340008DB1807F8DB98EB18F608EB941E060E84C
:1003500081E690E00E94B70113BE15BE0E946E01B7
:100360000E9471010E947A010E947D0108952FB7B9
:10037000F894FC01608340832FBF0895E4E6F0E029
:1003800080818F7D808383E884BD82E085BD80E0AD
:10039000089587BD08951F920F920FB60F921124F2
:1003A0008F9385B3816085BB80917E018F5F809341
:1003B0007E018F910F900FBE0F901F90189560E0F7
:1003C00070E0CB010895E4E6F0E08081877F8083D0
:1003D00085E08093810081E080936F000895EFE6CF
:1003E000F0E080818E7F80831092840110928501DD
:1003F0001092860110928701109280011092810163
:10040000109282011092830110927F0108958F92C1
:100410009F92AF92BF92CF92DF92EF92FF920F9393
:100420001F93CF93DF93EC010E811F8128853985BF
:10043000E0918A01F0918B011D821C8280918401E0
:1004400090918501A0918601B09187010817190745
:100450002A073B0708F06FC0DF01C0908401D090ED
:100460008501E0908601F090870180917F018823CB
:10047000E1F1409184005091850060E070E080904F
:10048000800190908101A0908201B0908301481575
:1004900059056A057B0520F44FEF5FEF60E070E0DF
:1004A0008090800190908101A0908201B0908301A2
:1004B000481959096A097B09C40ED51EE61EF71EA4
:1004C00014C016964D915D916D917C9119974C19C0
:1004D0005D096E097F0916964D935D936D937C932C
:1004E000199714960D90BC91A02D109751F78091FB
:1004F000840190918501A0918601B09187018C19AA
:100500009D09AE09BF098093840190938501A09352
:100510008601B093870180E090E0A1E0B0E08C1903
:100520009D09AE09BF09080F191F2A1F3B1F0E8323
:100530001F8328873987A0E0B0E091E00EC0468194
:10054000578160857185041715072607370738F02E
:1005500090E0DF010480F581E02D309781F7913044
:1005600069F510928001109281011092820110921F
:100570008301E4E8F0E01182108280918001909183
:100580008101A0918201B09183019183808386B320
:10059000816086BB80918A0190918B0122E08F312E
:1005A000920721F480912302909124029D838C83F1
:1005B000D0938B01C0938A0181E00BC014968D917A
:1005C0009C9115979D838C831596DC93CE931497FD
:1005D00080E0DF91CF911F910F91FF90EF90DF901E
:1005E000CF90BF90AF909F908F9008950F931F93DF
:1005F000EFE6F0E080818E7F8083E0918A01F091C8
:100600008B01309719F40E94EF015DC086819781BC
:10061000A085B1854091840150918501609186014A
:1006200070918701841B950BA60BB70B009701E017
:10063000A007B10500F140918401509185016091BE
:10064000860170918701415051096F4F7F4FAFE193
:10065000B2E016964D935D936D937C931997159622
:10066000FC93EE931497B0938B01A0938A018FEFC4
:100670009FEFA0E0B0E04FEF5FEF60E070E08A0135
:100680009B01081B190B2A0B3B0B00938001109355
:1006900081012093820130938301E4E8F0E011822C
:1006A00010828091800190918101A0918201B0918E
:1006B000830191838083EFE6F0E080818160808315
:1006C00081E080937F011F910F910895FC0180814B
:1006D0009181892BA1F1AFE6B0E08C918E7F8C9354
:1006E000808191818617970761F4A081B18114966A
:1006F0008D919C911597918380830E94F60281E0F1
:1007000008950190F081E02DA0E0B0E00FC0E61761
:10071000F70741F48481958115969C938E931497E5
:1007200081E007C0DF010480F581E02D309779F783
:1007300080E0EFE6F0E0908191609083089580E0A2
:100740000895CF93DF93EC01BC018AE891E00E9409
:100750006603811105C0BE0188E891E00E9466032E
:100760001D821C82DF91CF910895CF92DF92EF928C
:10077000FF92CF93DF93EC016A017B010E94A103FA
:10078000EFE6F0E080818E7F80834091840150917C
:10079000850160918601709187014C0D5D1D6E1D74
:1007A0007F1D80917F01882339F180918400909191
:1007B0008500A0E0B0E0C0908001D0908101E09081
:1007C0008201F09083018C159D05AE05BF0520F4D4
:1007D0008FEF9FEFA0E0B0E0C0908001D09081014A
:1007E000E0908201F09083018C199D09AE09BF0948
:1007F000480F591F6A1F7B1F4E835F836887798765
:10080000CE010E940702882319F00E94F60209C057
:1008100080917F01882329F0EFE6F0E080818160FC
:100820008083DF91CF91FF90EF90DF90CF9008957C
:10083000CF93DF938091880190918901892B61F199
:10084000EFE6F0E0908180818E7F8083C091880107
:10085000D0918901E0918801F0918901248135814D
:1008600030938901209388011D821C8290FF05C06E
:10087000EFE6F0E0808181608083E881F9818A8100
:100880009B810995611571058105910529F0AB01E1
:10089000BC01CE010E94B503DF91CF9108951F9254
:1008A0000F920FB60F9211242F933F934F935F93A4
:1008B0006F937F938F939F93AF93BF93EF93FF9328
:1008C000A0918A01B0918B0114962D913C911597BE
:1008D00016964D915D916D917C911997409384018D
:1008E0005093850160938601709387011092800177
:1008F00010928101109282011092830182E0AF3147
:10090000B80711F4A2E3B1E015961C921E92149759
:100910008091880190918901892B29F4B0938901F4
:10092000A09388010CC0E0918801F091890101C079
:10093000FC01848195810097D9F7B583A483309316
:100940008B0120938A010E94F602FF91EF91BF91E3
:10095000AF919F918F917F916F915F914F913F9157
:100960002F910F900FBE0F901F9018959091C60079
:10097000E0911102EF5FE77080911002E81759F0E3
:10098000E0931102F0E0EE5EFD4F908380910F0244
:100990008F5F80930F02089580918C01882389F0E6
:1009A000E0918D01EF5FEF77E0938D01F0E0E1578B
:1009B000FE4F80818093C60080918C01815080938E
:1009C0008C0180918C01811105C0E1ECF0E0808107
:1009D0008F7D808308951F920F920FB60F9211247E
:1009E0002F933F934F935F936F937F938F939F9337
:1009F000AF93BF93EF93FF93E0913E01F0913F01DE
:100A0000309709F00995FF91EF91BF91AF919F91B8
:100A10008F917F916F915F914F913F912F910F90A7
:100A20000FBE0F901F9018951F920F920FB60F9246
:100A300011242F933F934F935F936F937F938F93E3
:100A40009F93AF93BF93EF93FF93E0913C01F0919D
:100A50003D01309709F00995FF91EF91BF91AF915A
:100A60009F918F917F916F915F914F913F912F91C6
:100A70000F900FBE0F901F90189520918E012F5F41
:100A80002F7790918C019038E1F3E22FF0E0E1575D
:100A9000FE4F808320938E010FB6F8940F928091C1
:100AA0008C018F5F80938C010F900FBEE1ECF0E022
:100AB00080818062808308950E943D0580E090E0FF
:100AC0000895E4E6F0E080818D7F80831092C50078
:100AD00080E18093C40082E08093C00088E9809325
:100AE000C100109210021092110210920F02109287
:100AF0008D0110928E0110928C0180E491E0909310
:100B00002C0280932B0280E00895A0E0B0E0EBE897
:100B1000F5E00C943C08AE014B5F5F4FFA01619128
:100B20007191AF0180912B0290912C020E949B0544
:100B3000E2E00C945808ABE0B0E0E1EAF5E00C9498
:100B40002C086C017B018A01FC01178216828381CB
:100B500081FFCCC1CE0101963C01F6019381F701E2
:100B600093FD859193FF81917F01882309F4BAC198
:100B7000853239F493FD859193FF81917F01853210
:100B800029F4B60190E00E949207E7CF912C212C26
:100B9000312CFFE1F315D8F08B3279F038F4803244
:100BA00079F08332A1F4232D20611DC08D3261F0D4
:100BB000803369F4232D216016C0832D8260382E86
:100BC000E32DE4603E2E2AC0F32DF8601DC037FCF3
:100BD0002DC020ED280F2A3040F08E32B9F436FCBB
:100BE00081C1232D2064322E19C036FE06C08AE052
:100BF000989E200D1124922E11C0EAE02E9E200D09
:100C00001124222EF32DF0623F2E08C08C3621F4E1
:100C1000832D8068382E02C0883641F4F70193FD99
:100C2000859193FF81917F018111B3CF982F9F7D93
:100C30009554933028F40C5F1F4F9FE399830DC0A8
:100C4000833631F0833771F0833509F059C021C004
:100C5000F801808189830E5F1F4F88248394912C33
:100C6000530113C02801F2E04F0E511CF801A0807F
:100C7000B18036FE03C0692D70E002C06FEF7FEFD8
:100C8000C5010E9487074C018201F32DFF773F2E9B
:100C900016C0280122E0420E511CF801A080B1804C
:100CA00036FE03C0692D70E002C06FEF7FEFC50113
:100CB0000E947C074C01F32DF0683F2E820133FC2B
:100CC0001BC0822D90E088169906B0F4B60180E230
:100CD00090E00E9492072A94F4CFF50137FC8591A9
:100CE00037FE81915F01B60190E00E9492072110CA
:100CF0002A9421E0821A91088114910471F7E8C0C6
:100D0000843611F0893641F5F80137FE07C060815D
:100D10007181828193810C5F1F4F08C06081718156
:100D2000072E000C880B990B0E5F1F4FF32DFF76DB
:100D30003F2E97FF09C090958095709561957F4FE4
:100D40008F4F9F4FF0683F2E2AE030E0A3010E94B2
:100D5000CE07882E861845C0853731F4232D2F7E87
:100D6000B22E2AE030E025C0932D997FB92E8F3620
:100D7000C1F018F4883579F0B5C0803719F088379C
:100D800021F0B0C0E92FE061BE2EB4FE0DC0FB2DF6
:100D9000F460BF2E09C034FE0AC0292F2660B22E8F
:100DA00006C028E030E005C020E130E002C020E1CC
:100DB00032E0F801B7FE07C06081718182819381C2
:100DC0000C5F1F4F06C06081718180E090E00E5F74
:100DD0001F4FA3010E94CE07882E8618FB2DFF7798
:100DE0003F2E36FE0DC0232D2E7FA22E891458F4DF
:100DF00034FE0BC032FC09C0832D8E7EA82E05C0A8
:100E0000B82CA32C03C0B82C01C0B92CA4FE0FC071
:100E1000FE01E80DF11D8081803321F49A2D997E29
:100E2000A92E09C0A2FE06C0B394B39404C08A2DB3
:100E3000867809F0B394A3FC11C0A0FE06C0B214DA
:100E400088F4280C922C9B180EC0B21460F4B601E2
:100E500080E290E00E949207B394F7CFB21418F4A6
:100E60002B1802C0982C212CA4FE10C0B60180E3E0
:100E700090E00E949207A2FE17C0A1FC03C088E781
:100E800090E002C088E590E0B6010CC08A2D86781B
:100E900059F0A1FE02C08BE201C080E2A7FC8DE206
:100EA000B60190E00E949207891438F4B60180E3FD
:100EB00090E00E9492079A94F7CF8A94F301E80D8C
:100EC000F11D8081B60190E00E9492078110F5CF5C
:100ED000222009F442CEB60180E290E00E949207FF
:100EE0002A94F6CFF6018681978102C08FEF9FEF9B
:100EF0002B96E2E10C944808FC010590615070408B
:100F00000110D8F7809590958E0F9F1F0895FC01D2
:100F10006150704001900110D8F7809590958E0F28
:100F20009F1F08950F931F93CF93DF93FB0123819E
:100F300021FD03C08FEF9FEF2CC022FF16C046811A
:100F40005781248135814217530744F4A081B18130
:100F50009D012F5F3F4F318320838C932681378102
:100F60002F5F3F4F3783268314C08B01EC01FB01B9
:100F70000084F185E02D0995892BE1F6D8011696BC
:100F80008D919C911797019617969C938E93169727
:100F9000CE01DF91CF911F910F910895FA01AA27F9
:100FA000283051F1203181F1E8946F936E7F6E5FAC
:100FB0007F4F8F4F9F4FAF4FB1E03ED0B4E03CD05A
:100FC000670F781F891F9A1FA11D680F791F8A1F3D
:100FD000911DA11D6A0F711D811D911DA11D20D0A4
:100FE00009F468943F912AE0269F11243019305D5E
:100FF0003193DEF6CF010895462F4770405D41934F
:10100000B3E00FD0C9F7F6CF462F4F70405D4A339B
:1010100018F0495D31FD4052419302D0A9F7EACF63
:10102000B4E0A6959795879577956795BA95C9F792
:1010300000976105710508959B01AC010A2E069485
:101040005795479537952795BA95C9F7620F731F3E
:10105000841F951FA01D08952F923F924F925F927B
:101060006F927F928F929F92AF92BF92CF92DF92B8
:10107000EF92FF920F931F93CF93DF93CDB7DEB71D
:10108000CA1BDB0B0FB6F894DEBF0FBECDBF0994B1
:101090002A88398848885F846E847D848C849B8408
:1010A000AA84B984C884DF80EE80FD800C811B8116
:1010B000AA81B981CE0FD11D0FB6F894DEBF0FBE45
:0A10C000CDBFED010895F894FFCFB5
:1010CA00E9000000000000000000CD000000000060
:1010DA0000000000A80000000000000000008800D6
:1010EA0000000000000000007C000000000000007A
:1010FA000000DF010000000000000000CC04B6047C
:10110A0000000002000000005C05000000004144ED
:10111A00433D25640D0A0044757479433D25640DE9
:10112A000A00636C6F636B313D25640D0A00636CC2
:0A113A006F636B323D25640D0A005F
:00000001FF
